:0A01C100EF1FAC0670011E4C600E2B
:0C01CB00750A02750BC7D50BFDD50AFAAA
:0301D70080E8229B
:1001DA005389F0438901758A18758CFCC28DD28CBB
:0701EA00D2A9D2AFC2B92275
:10000E00F88CF8F3F95BF9B8FA15FA67FAB9FB044C
:10001E00FB4BFB90FBCFFC10FC44FC79FCACFCDCF6
:10002E00FD09FD34FD5CFD82FDA6FDC8FDE8FE0662
:10003E00FE22FE3DFE56FE6EFE85FE9AFEAEFEC111
:10004E00FED3FEE4FEF4FF030000242009040B049B
:10005E000904090C10080B040C040B040B080C0407
:10006E000E040B0609020B0409020B0409020B0411
:10007E0009020B0409020B042420150413041004B6
:10008E000E0C10040C080E081008130C15041304A3
:10009E0010040E0C10040E0C0C040E080C0C15049F
:1000AE00130410040E0C10040C080E081008130C88
:1000BE001504130410040E0C1004091C2408150456
:1000CE00130410040E0C10040C080E081008130C68
:1000DE001504130410040E0C10040E0C0C040E0860
:1000EE000C0C1504130410040E0C10040C080E084E
:1000FE001008130C1504130410040E0C1004091C24
:10010E0024080C040E0410041508130C10020E0221
:10011E000C040E0410041308150818021702180414
:0D012E00150410040E08100815242430FEDE
:100183001201DAE50990005893FFFD3395E0FCED89
:1001930064EF4C60258F080509E50993FF3395E06B
:1001A300FE7C007D321201F11201C10509C28C7F70
:0E01B300057E001201C1D28C80C9C28C80FE74
:03000B0002013BB4
:10013B00C0E0C083C082C0D075D000C006E50825E2
:10014B00E0240EF582E43400F5837401937002E42D
:10015B0093601AE50825E0240EF582E43400F5835C
:10016B00E493FE740193F58AEEF58CB2A5D006D01C
:08017B00D0D082D083D0E03225
:03000000020203F6
:0C020300787FE4F6D8FD75810B020183C2
:1001F100EF8DF0A4A8F0CF8CF0A428CE8DF0A42E22
:02020100FE22DB
:00000001FF
